{
  "contractName": "Horse",
  "abi": [
    {
      "anonymous": false,
      "inputs": [
        {
          "indexed": true,
          "internalType": "address",
          "name": "previousOwner",
          "type": "address"
        },
        {
          "indexed": true,
          "internalType": "address",
          "name": "newOwner",
          "type": "address"
        }
      ],
      "name": "OwnershipTransferred",
      "type": "event"
    },
    {
      "anonymous": false,
      "inputs": [
        {
          "indexed": true,
          "internalType": "address",
          "name": "who",
          "type": "address"
        },
        {
          "indexed": false,
          "internalType": "uint256",
          "name": "timestamp",
          "type": "uint256"
        },
        {
          "indexed": false,
          "internalType": "bytes32",
          "name": "mnemonic",
          "type": "bytes32"
        },
        {
          "indexed": false,
          "internalType": "uint256",
          "name": "year",
          "type": "uint256"
        },
        {
          "indexed": false,
          "internalType": "uint256",
          "name": "month",
          "type": "uint256"
        },
        {
          "indexed": false,
          "internalType": "uint256",
          "name": "day",
          "type": "uint256"
        },
        {
          "indexed": false,
          "internalType": "uint256",
          "name": "race",
          "type": "uint256"
        }
      ],
      "name": "ResultAdded",
      "type": "event"
    },
    {
      "inputs": [],
      "name": "count",
      "outputs": [
        {
          "internalType": "uint256",
          "name": "",
          "type": "uint256"
        }
      ],
      "stateMutability": "view",
      "type": "function",
      "constant": true
    },
    {
      "inputs": [],
      "name": "owner",
      "outputs": [
        {
          "internalType": "address",
          "name": "",
          "type": "address"
        }
      ],
      "stateMutability": "view",
      "type": "function",
      "constant": true
    },
    {
      "inputs": [],
      "name": "renounceOwnership",
      "outputs": [],
      "stateMutability": "nonpayable",
      "type": "function"
    },
    {
      "inputs": [
        {
          "internalType": "bytes32",
          "name": "",
          "type": "bytes32"
        },
        {
          "internalType": "uint256",
          "name": "",
          "type": "uint256"
        },
        {
          "internalType": "uint256",
          "name": "",
          "type": "uint256"
        },
        {
          "internalType": "uint256",
          "name": "",
          "type": "uint256"
        },
        {
          "internalType": "uint256",
          "name": "",
          "type": "uint256"
        },
        {
          "internalType": "uint256",
          "name": "",
          "type": "uint256"
        }
      ],
      "name": "results",
      "outputs": [
        {
          "internalType": "uint256",
          "name": "",
          "type": "uint256"
        }
      ],
      "stateMutability": "view",
      "type": "function",
      "constant": true
    },
    {
      "inputs": [
        {
          "internalType": "address",
          "name": "newOwner",
          "type": "address"
        }
      ],
      "name": "transferOwnership",
      "outputs": [],
      "stateMutability": "nonpayable",
      "type": "function"
    },
    {
      "inputs": [
        {
          "internalType": "bytes32",
          "name": "mnemonic",
          "type": "bytes32"
        },
        {
          "internalType": "uint256",
          "name": "year",
          "type": "uint256"
        },
        {
          "internalType": "uint256",
          "name": "month",
          "type": "uint256"
        },
        {
          "internalType": "uint256",
          "name": "day",
          "type": "uint256"
        },
        {
          "internalType": "uint256",
          "name": "race",
          "type": "uint256"
        },
        {
          "internalType": "uint256[]",
          "name": "_results",
          "type": "uint256[]"
        }
      ],
      "name": "addResult",
      "outputs": [],
      "stateMutability": "nonpayable",
      "type": "function"
    }
  ],
  "bytecode": "0x608060405234801561001057600080fd5b5061002d61002261003260201b60201c565b61003a60201b60201c565b6100fe565b600033905090565b60008060009054906101000a900473ffffffffffffffffffffffffffffffffffffffff169050816000806101000a81548173ffffffffffffffffffffffffffffffffffffffff021916908373ffffffffffffffffffffffffffffffffffffffff1602179055508173ffffffffffffffffffffffffffffffffffffffff168173ffffffffffffffffffffffffffffffffffffffff167f8be0079c531659141344cd1fd0a4f28419497f9722a3daafe3b4186f6b6457e060405160405180910390a35050565b610b658061010d6000396000f3fe608060405234801561001057600080fd5b50600436106100625760003560e01c806306661abd14610067578063715018a6146100855780638da5cb5b1461008f578063957fbfdc146100ad578063cb62fcf2146100dd578063f2fde38b146100f9575b600080fd5b61006f610115565b60405161007c9190610851565b60405180910390f35b61008d61011b565b005b6100976101a3565b6040516100a491906107f6565b60405180910390f35b6100c760048036038101906100c291906106f6565b6101cc565b6040516100d49190610851565b60405180910390f35b6100f760048036038101906100f2919061064d565b610231565b005b610113600480360381019061010e9190610620565b610315565b005b60015481565b61012361040d565b73ffffffffffffffffffffffffffffffffffffffff166101416101a3565b73ffffffffffffffffffffffffffffffffffffffff1614610197576040517f08c379a000000000000000000000000000000000000000000000000000000000815260040161018e90610831565b60405180910390fd5b6101a16000610415565b565b60008060009054906101000a900473ffffffffffffffffffffffffffffffffffffffff16905090565b6002602052856000526040600020602052846000526040600020602052836000526040600020602052826000526040600020602052816000526040600020818154811061021857600080fd5b9060005260206000200160009550955050505050505481565b80600260008881526020019081526020016000206000878152602001908152602001600020600086815260200190815260200160002060008581526020019081526020016000206000848152602001908152602001600020908051906020019061029c9291906104d9565b50600160008154809291906102b0906109a6565b91905055503373ffffffffffffffffffffffffffffffffffffffff167f73de45c25d7789c56d0f2447110b3b7e2e9adc2f85dcc138cd869318df8a6ed94288888888886040516103059695949392919061086c565b60405180910390a2505050505050565b61031d61040d565b73ffffffffffffffffffffffffffffffffffffffff1661033b6101a3565b73ffffffffffffffffffffffffffffffffffffffff1614610391576040517f08c379a000000000000000000000000000000000000000000000000000000000815260040161038890610831565b60405180910390fd5b600073ffffffffffffffffffffffffffffffffffffffff168173ffffffffffffffffffffffffffffffffffffffff161415610401576040517f08c379a00000000000000000000000000000000000000000000000000000000081526004016103f890610811565b60405180910390fd5b61040a81610415565b50565b600033905090565b60008060009054906101000a900473ffffffffffffffffffffffffffffffffffffffff169050816000806101000a81548173ffffffffffffffffffffffffffffffffffffffff021916908373ffffffffffffffffffffffffffffffffffffffff1602179055508173ffffffffffffffffffffffffffffffffffffffff168173ffffffffffffffffffffffffffffffffffffffff167f8be0079c531659141344cd1fd0a4f28419497f9722a3daafe3b4186f6b6457e060405160405180910390a35050565b828054828255906000526020600020908101928215610515579160200282015b828111156105145782518255916020019190600101906104f9565b5b5090506105229190610526565b5090565b5b8082111561053f576000816000905550600101610527565b5090565b6000610556610551846108f2565b6108cd565b9050808382526020820190508285602086028201111561057957610578610a52565b5b60005b858110156105a9578161058f888261060b565b84526020840193506020830192505060018101905061057c565b5050509392505050565b6000813590506105c281610aea565b92915050565b600082601f8301126105dd576105dc610a4d565b5b81356105ed848260208601610543565b91505092915050565b60008135905061060581610b01565b92915050565b60008135905061061a81610b18565b92915050565b60006020828403121561063657610635610a5c565b5b6000610644848285016105b3565b91505092915050565b60008060008060008060c0878903121561066a57610669610a5c565b5b600061067889828a016105f6565b965050602061068989828a0161060b565b955050604061069a89828a0161060b565b94505060606106ab89828a0161060b565b93505060806106bc89828a0161060b565b92505060a087013567ffffffffffffffff8111156106dd576106dc610a57565b5b6106e989828a016105c8565b9150509295509295509295565b60008060008060008060c0878903121561071357610712610a5c565b5b600061072189828a016105f6565b965050602061073289828a0161060b565b955050604061074389828a0161060b565b945050606061075489828a0161060b565b935050608061076589828a0161060b565b92505060a061077689828a0161060b565b9150509295509295509295565b61078c8161092f565b82525050565b61079b81610941565b82525050565b60006107ae60268361091e565b91506107b982610a72565b604082019050919050565b60006107d160208361091e565b91506107dc82610ac1565b602082019050919050565b6107f08161096b565b82525050565b600060208201905061080b6000830184610783565b92915050565b6000602082019050818103600083015261082a816107a1565b9050919050565b6000602082019050818103600083015261084a816107c4565b9050919050565b600060208201905061086660008301846107e7565b92915050565b600060c08201905061088160008301896107e7565b61088e6020830188610792565b61089b60408301876107e7565b6108a860608301866107e7565b6108b560808301856107e7565b6108c260a08301846107e7565b979650505050505050565b60006108d76108e8565b90506108e38282610975565b919050565b6000604051905090565b600067ffffffffffffffff82111561090d5761090c610a1e565b5b602082029050602081019050919050565b600082825260208201905092915050565b600061093a8261094b565b9050919050565b6000819050919050565b600073ffffffffffffffffffffffffffffffffffffffff82169050919050565b6000819050919050565b61097e82610a61565b810181811067ffffffffffffffff8211171561099d5761099c610a1e565b5b80604052505050565b60006109b18261096b565b91507fffffffffffffffffffffffffffffffffffffffffffffffffffffffffffffffff8214156109e4576109e36109ef565b5b600182019050919050565b7f4e487b7100000000000000000000000000000000000000000000000000000000600052601160045260246000fd5b7f4e487b7100000000000000000000000000000000000000000000000000000000600052604160045260246000fd5b600080fd5b600080fd5b600080fd5b600080fd5b6000601f19601f8301169050919050565b7f4f776e61626c653a206e6577206f776e657220697320746865207a65726f206160008201527f6464726573730000000000000000000000000000000000000000000000000000602082015250565b7f4f776e61626c653a2063616c6c6572206973206e6f7420746865206f776e6572600082015250565b610af38161092f565b8114610afe57600080fd5b50565b610b0a81610941565b8114610b1557600080fd5b50565b610b218161096b565b8114610b2c57600080fd5b5056fea26469706673582212200b884a3652b72bd6653651c331d6c6d63ec6d623db041248302b0406848a170564736f6c63430008060033",
  "immutableReferences": {},
  "source": "// SPDX-License-Identifier: MIT\npragma solidity =0.8.6;\n\nimport {Ownable} from \"@openzeppelin/contracts/access/Ownable.sol\";\n// import \"@openzeppelin/contracts/access/Ownable.sol\";\n\nstruct Result {\n    uint256 first;\n    uint256 second;\n    uint256 third;\n    uint256 forth;\n    uint256 timestamp;\n}\n\ncontract Horse is Ownable {\n\n    uint256 public count;\n\n    mapping(bytes32 => mapping(uint256 => mapping(uint256 => mapping(uint256 => mapping(uint256 => uint256[]))))) public results;\n\n    function addResult(bytes32 mnemonic, uint256 year, uint256 month, uint256 day, uint256 race, uint256[] memory _results) public {\n        results[mnemonic][year][month][day][race] = _results;\n        count++;\n        emit ResultAdded(msg.sender, block.timestamp, mnemonic, year, month, day, race);\n    }\n\n    event ResultAdded(address indexed who, uint256 timestamp, bytes32 mnemonic, uint year, uint month, uint day, uint race);\n}",
  "sourcePath": "/home/lucascullen/GitHub/BitcoinBrisbane/horse.link/contracts/Horse.sol",
  "compiler": {
    "name": "solc",
    "version": "0.8.6+commit.11564f7e.Emscripten.clang"
  },
  "schemaVersion": "3.3.4",
  "updatedAt": "2021-09-02T10:38:10.367Z",
  "networkType": "ethereum",
  "devdoc": {
    "kind": "dev",
    "methods": {
      "owner()": {
        "details": "Returns the address of the current owner."
      },
      "renounceOwnership()": {
        "details": "Leaves the contract without owner. It will not be possible to call `onlyOwner` functions anymore. Can only be called by the current owner. NOTE: Renouncing ownership will leave the contract without an owner, thereby removing any functionality that is only available to the owner."
      },
      "transferOwnership(address)": {
        "details": "Transfers ownership of the contract to a new account (`newOwner`). Can only be called by the current owner."
      }
    },
    "version": 1
  },
  "userdoc": {
    "kind": "user",
    "methods": {},
    "version": 1
  }
}