{
  "contractName": "Horse",
  "abi": [
    {
      "anonymous": false,
      "inputs": [
        {
          "indexed": true,
          "internalType": "address",
          "name": "previousOwner",
          "type": "address"
        },
        {
          "indexed": true,
          "internalType": "address",
          "name": "newOwner",
          "type": "address"
        }
      ],
      "name": "OwnershipTransferred",
      "type": "event"
    },
    {
      "anonymous": false,
      "inputs": [
        {
          "indexed": true,
          "internalType": "address",
          "name": "who",
          "type": "address"
        },
        {
          "indexed": false,
          "internalType": "uint256",
          "name": "timestamp",
          "type": "uint256"
        },
        {
          "indexed": false,
          "internalType": "bytes32",
          "name": "mnemonic",
          "type": "bytes32"
        },
        {
          "indexed": false,
          "internalType": "uint256",
          "name": "year",
          "type": "uint256"
        },
        {
          "indexed": false,
          "internalType": "uint256",
          "name": "month",
          "type": "uint256"
        },
        {
          "indexed": false,
          "internalType": "uint256",
          "name": "day",
          "type": "uint256"
        },
        {
          "indexed": false,
          "internalType": "uint256",
          "name": "race",
          "type": "uint256"
        }
      ],
      "name": "ResultAdded",
      "type": "event"
    },
    {
      "inputs": [],
      "name": "owner",
      "outputs": [
        {
          "internalType": "address",
          "name": "",
          "type": "address"
        }
      ],
      "stateMutability": "view",
      "type": "function",
      "constant": true
    },
    {
      "inputs": [],
      "name": "renounceOwnership",
      "outputs": [],
      "stateMutability": "nonpayable",
      "type": "function"
    },
    {
      "inputs": [
        {
          "internalType": "address",
          "name": "",
          "type": "address"
        },
        {
          "internalType": "bytes32",
          "name": "",
          "type": "bytes32"
        },
        {
          "internalType": "uint256",
          "name": "",
          "type": "uint256"
        },
        {
          "internalType": "uint256",
          "name": "",
          "type": "uint256"
        },
        {
          "internalType": "uint256",
          "name": "",
          "type": "uint256"
        },
        {
          "internalType": "uint256",
          "name": "",
          "type": "uint256"
        },
        {
          "internalType": "uint256",
          "name": "",
          "type": "uint256"
        }
      ],
      "name": "results",
      "outputs": [
        {
          "internalType": "uint256",
          "name": "",
          "type": "uint256"
        }
      ],
      "stateMutability": "view",
      "type": "function",
      "constant": true
    },
    {
      "inputs": [
        {
          "internalType": "address",
          "name": "newOwner",
          "type": "address"
        }
      ],
      "name": "transferOwnership",
      "outputs": [],
      "stateMutability": "nonpayable",
      "type": "function"
    },
    {
      "inputs": [
        {
          "internalType": "bytes32",
          "name": "mnemonic",
          "type": "bytes32"
        },
        {
          "internalType": "uint256",
          "name": "year",
          "type": "uint256"
        },
        {
          "internalType": "uint256",
          "name": "month",
          "type": "uint256"
        },
        {
          "internalType": "uint256",
          "name": "day",
          "type": "uint256"
        },
        {
          "internalType": "uint256",
          "name": "race",
          "type": "uint256"
        },
        {
          "internalType": "uint256[]",
          "name": "_results",
          "type": "uint256[]"
        }
      ],
      "name": "addResult",
      "outputs": [],
      "stateMutability": "nonpayable",
      "type": "function"
    }
  ],
  "bytecode": "0x608060405234801561001057600080fd5b5061002d61002261003260201b60201c565b61003a60201b60201c565b6100fe565b600033905090565b60008060009054906101000a900473ffffffffffffffffffffffffffffffffffffffff169050816000806101000a81548173ffffffffffffffffffffffffffffffffffffffff021916908373ffffffffffffffffffffffffffffffffffffffff1602179055508173ffffffffffffffffffffffffffffffffffffffff168173ffffffffffffffffffffffffffffffffffffffff167f8be0079c531659141344cd1fd0a4f28419497f9722a3daafe3b4186f6b6457e060405160405180910390a35050565b610b058061010d6000396000f3fe608060405234801561001057600080fd5b50600436106100575760003560e01c8063715018a61461005c5780638da5cb5b14610066578063cb62fcf214610084578063ec6732ce146100a0578063f2fde38b146100d0575b600080fd5b6100646100ec565b005b61006e610174565b60405161007b919061080e565b60405180910390f35b61009e600480360381019061009991906106f2565b61019d565b005b6100ba60048036038101906100b59190610650565b6102a6565b6040516100c79190610869565b60405180910390f35b6100ea60048036038101906100e59190610623565b610318565b005b6100f4610410565b73ffffffffffffffffffffffffffffffffffffffff16610112610174565b73ffffffffffffffffffffffffffffffffffffffff1614610168576040517f08c379a000000000000000000000000000000000000000000000000000000000815260040161015f90610849565b60405180910390fd5b6101726000610418565b565b60008060009054906101000a900473ffffffffffffffffffffffffffffffffffffffff16905090565b80600160003373ffffffffffffffffffffffffffffffffffffffff1673ffffffffffffffffffffffffffffffffffffffff1681526020019081526020016000206000888152602001908152602001600020600087815260200190815260200160002060008681526020019081526020016000206000858152602001908152602001600020600084815260200190815260200160002090805190602001906102459291906104dc565b503373ffffffffffffffffffffffffffffffffffffffff167f73de45c25d7789c56d0f2447110b3b7e2e9adc2f85dcc138cd869318df8a6ed942888888888860405161029696959493929190610884565b60405180910390a2505050505050565b600160205286600052604060002060205285600052604060002060205284600052604060002060205283600052604060002060205282600052604060002060205281600052604060002081815481106102fe57600080fd5b906000526020600020016000965096505050505050505481565b610320610410565b73ffffffffffffffffffffffffffffffffffffffff1661033e610174565b73ffffffffffffffffffffffffffffffffffffffff1614610394576040517f08c379a000000000000000000000000000000000000000000000000000000000815260040161038b90610849565b60405180910390fd5b600073ffffffffffffffffffffffffffffffffffffffff168173ffffffffffffffffffffffffffffffffffffffff161415610404576040517f08c379a00000000000000000000000000000000000000000000000000000000081526004016103fb90610829565b60405180910390fd5b61040d81610418565b50565b600033905090565b60008060009054906101000a900473ffffffffffffffffffffffffffffffffffffffff169050816000806101000a81548173ffffffffffffffffffffffffffffffffffffffff021916908373ffffffffffffffffffffffffffffffffffffffff1602179055508173ffffffffffffffffffffffffffffffffffffffff168173ffffffffffffffffffffffffffffffffffffffff167f8be0079c531659141344cd1fd0a4f28419497f9722a3daafe3b4186f6b6457e060405160405180910390a35050565b828054828255906000526020600020908101928215610518579160200282015b828111156105175782518255916020019190600101906104fc565b5b5090506105259190610529565b5090565b5b8082111561054257600081600090555060010161052a565b5090565b60006105596105548461090a565b6108e5565b9050808382526020820190508285602086028201111561057c5761057b6109f2565b5b60005b858110156105ac5781610592888261060e565b84526020840193506020830192505060018101905061057f565b5050509392505050565b6000813590506105c581610a8a565b92915050565b600082601f8301126105e0576105df6109ed565b5b81356105f0848260208601610546565b91505092915050565b60008135905061060881610aa1565b92915050565b60008135905061061d81610ab8565b92915050565b600060208284031215610639576106386109fc565b5b6000610647848285016105b6565b91505092915050565b600080600080600080600060e0888a03121561066f5761066e6109fc565b5b600061067d8a828b016105b6565b975050602061068e8a828b016105f9565b965050604061069f8a828b0161060e565b95505060606106b08a828b0161060e565b94505060806106c18a828b0161060e565b93505060a06106d28a828b0161060e565b92505060c06106e38a828b0161060e565b91505092959891949750929550565b60008060008060008060c0878903121561070f5761070e6109fc565b5b600061071d89828a016105f9565b965050602061072e89828a0161060e565b955050604061073f89828a0161060e565b945050606061075089828a0161060e565b935050608061076189828a0161060e565b92505060a087013567ffffffffffffffff811115610782576107816109f7565b5b61078e89828a016105cb565b9150509295509295509295565b6107a481610947565b82525050565b6107b381610959565b82525050565b60006107c6602683610936565b91506107d182610a12565b604082019050919050565b60006107e9602083610936565b91506107f482610a61565b602082019050919050565b61080881610983565b82525050565b6000602082019050610823600083018461079b565b92915050565b60006020820190508181036000830152610842816107b9565b9050919050565b60006020820190508181036000830152610862816107dc565b9050919050565b600060208201905061087e60008301846107ff565b92915050565b600060c08201905061089960008301896107ff565b6108a660208301886107aa565b6108b360408301876107ff565b6108c060608301866107ff565b6108cd60808301856107ff565b6108da60a08301846107ff565b979650505050505050565b60006108ef610900565b90506108fb828261098d565b919050565b6000604051905090565b600067ffffffffffffffff821115610925576109246109be565b5b602082029050602081019050919050565b600082825260208201905092915050565b600061095282610963565b9050919050565b6000819050919050565b600073ffffffffffffffffffffffffffffffffffffffff82169050919050565b6000819050919050565b61099682610a01565b810181811067ffffffffffffffff821117156109b5576109b46109be565b5b80604052505050565b7f4e487b7100000000000000000000000000000000000000000000000000000000600052604160045260246000fd5b600080fd5b600080fd5b600080fd5b600080fd5b6000601f19601f8301169050919050565b7f4f776e61626c653a206e6577206f776e657220697320746865207a65726f206160008201527f6464726573730000000000000000000000000000000000000000000000000000602082015250565b7f4f776e61626c653a2063616c6c6572206973206e6f7420746865206f776e6572600082015250565b610a9381610947565b8114610a9e57600080fd5b50565b610aaa81610959565b8114610ab557600080fd5b50565b610ac181610983565b8114610acc57600080fd5b5056fea264697066735822122085d0e02cafa138e61f241035d878170d33e2a2c502b1976b4f27a4707ae4c9d864736f6c63430008060033",
  "immutableReferences": {},
  "source": "// SPDX-License-Identifier: MIT\npragma solidity =0.8.6;\n\nimport {Ownable} from \"@openzeppelin/contracts/access/Ownable.sol\";\n// import \"@openzeppelin/contracts/access/Ownable.sol\";\n\nstruct Result {\n    uint256 first;\n    uint256 second;\n    uint256 third;\n    uint256 forth;\n    uint256 timestamp;\n}\n\ncontract Horse is Ownable {\n\n    mapping(address => mapping(bytes32 => mapping(uint => mapping(uint => mapping(uint => mapping(uint => uint[])))))) public results;\n\n    function addResult(bytes32 mnemonic, uint year, uint month, uint day, uint race, uint[] memory _results) public {\n        results[msg.sender][mnemonic][year][month][day][race] = _results;\n\n        emit ResultAdded(msg.sender, block.timestamp, mnemonic, year, month, day, race);\n    }\n\n    event ResultAdded(address indexed who, uint256 timestamp, bytes32 mnemonic, uint year, uint month, uint day, uint race);\n}",
  "sourcePath": "/home/lucascullen/GitHub/BitcoinBrisbane/horse.link/contracts/Horse.sol",
  "compiler": {
    "name": "solc",
    "version": "0.8.6+commit.11564f7e.Emscripten.clang"
  },
  "schemaVersion": "3.3.4",
  "updatedAt": "2021-07-03T02:28:41.899Z",
  "networkType": "ethereum",
  "devdoc": {
    "kind": "dev",
    "methods": {
      "owner()": {
        "details": "Returns the address of the current owner."
      },
      "renounceOwnership()": {
        "details": "Leaves the contract without owner. It will not be possible to call `onlyOwner` functions anymore. Can only be called by the current owner. NOTE: Renouncing ownership will leave the contract without an owner, thereby removing any functionality that is only available to the owner."
      },
      "transferOwnership(address)": {
        "details": "Transfers ownership of the contract to a new account (`newOwner`). Can only be called by the current owner."
      }
    },
    "version": 1
  },
  "userdoc": {
    "kind": "user",
    "methods": {},
    "version": 1
  }
}