{
  "contractName": "Horse",
  "abi": [
    {
      "anonymous": false,
      "inputs": [
        {
          "indexed": true,
          "internalType": "address",
          "name": "previousOwner",
          "type": "address"
        },
        {
          "indexed": true,
          "internalType": "address",
          "name": "newOwner",
          "type": "address"
        }
      ],
      "name": "OwnershipTransferred",
      "type": "event"
    },
    {
      "anonymous": false,
      "inputs": [
        {
          "indexed": true,
          "internalType": "address",
          "name": "who",
          "type": "address"
        },
        {
          "indexed": false,
          "internalType": "uint256",
          "name": "timestamp",
          "type": "uint256"
        },
        {
          "indexed": false,
          "internalType": "bytes32",
          "name": "mnemonic",
          "type": "bytes32"
        },
        {
          "indexed": false,
          "internalType": "uint256",
          "name": "year",
          "type": "uint256"
        },
        {
          "indexed": false,
          "internalType": "uint256",
          "name": "month",
          "type": "uint256"
        },
        {
          "indexed": false,
          "internalType": "uint256",
          "name": "day",
          "type": "uint256"
        },
        {
          "indexed": false,
          "internalType": "uint256",
          "name": "race",
          "type": "uint256"
        }
      ],
      "name": "ResultAdded",
      "type": "event"
    },
    {
      "inputs": [],
      "name": "count",
      "outputs": [
        {
          "internalType": "uint256",
          "name": "",
          "type": "uint256"
        }
      ],
      "stateMutability": "view",
      "type": "function",
      "constant": true
    },
    {
      "inputs": [],
      "name": "owner",
      "outputs": [
        {
          "internalType": "address",
          "name": "",
          "type": "address"
        }
      ],
      "stateMutability": "view",
      "type": "function",
      "constant": true
    },
    {
      "inputs": [],
      "name": "renounceOwnership",
      "outputs": [],
      "stateMutability": "nonpayable",
      "type": "function"
    },
    {
      "inputs": [
        {
          "internalType": "address",
          "name": "",
          "type": "address"
        },
        {
          "internalType": "bytes32",
          "name": "",
          "type": "bytes32"
        },
        {
          "internalType": "uint256",
          "name": "",
          "type": "uint256"
        },
        {
          "internalType": "uint256",
          "name": "",
          "type": "uint256"
        },
        {
          "internalType": "uint256",
          "name": "",
          "type": "uint256"
        },
        {
          "internalType": "uint256",
          "name": "",
          "type": "uint256"
        },
        {
          "internalType": "uint256",
          "name": "",
          "type": "uint256"
        }
      ],
      "name": "results",
      "outputs": [
        {
          "internalType": "uint256",
          "name": "",
          "type": "uint256"
        }
      ],
      "stateMutability": "view",
      "type": "function",
      "constant": true
    },
    {
      "inputs": [
        {
          "internalType": "address",
          "name": "newOwner",
          "type": "address"
        }
      ],
      "name": "transferOwnership",
      "outputs": [],
      "stateMutability": "nonpayable",
      "type": "function"
    },
    {
      "inputs": [
        {
          "internalType": "bytes32",
          "name": "mnemonic",
          "type": "bytes32"
        },
        {
          "internalType": "uint256",
          "name": "year",
          "type": "uint256"
        },
        {
          "internalType": "uint256",
          "name": "month",
          "type": "uint256"
        },
        {
          "internalType": "uint256",
          "name": "day",
          "type": "uint256"
        },
        {
          "internalType": "uint256",
          "name": "race",
          "type": "uint256"
        },
        {
          "internalType": "uint256[]",
          "name": "_results",
          "type": "uint256[]"
        }
      ],
      "name": "addResult",
      "outputs": [],
      "stateMutability": "nonpayable",
      "type": "function"
    }
  ],
  "bytecode": "0x608060405234801561001057600080fd5b5061002d61002261003260201b60201c565b61003a60201b60201c565b6100fe565b600033905090565b60008060009054906101000a900473ffffffffffffffffffffffffffffffffffffffff169050816000806101000a81548173ffffffffffffffffffffffffffffffffffffffff021916908373ffffffffffffffffffffffffffffffffffffffff1602179055508173ffffffffffffffffffffffffffffffffffffffff168173ffffffffffffffffffffffffffffffffffffffff167f8be0079c531659141344cd1fd0a4f28419497f9722a3daafe3b4186f6b6457e060405160405180910390a35050565b610bc48061010d6000396000f3fe608060405234801561001057600080fd5b50600436106100625760003560e01c806306661abd14610067578063715018a6146100855780638da5cb5b1461008f578063cb62fcf2146100ad578063ec6732ce146100c9578063f2fde38b146100f9575b600080fd5b61006f610115565b60405161007c91906108b0565b60405180910390f35b61008d61011b565b005b6100976101a3565b6040516100a49190610855565b60405180910390f35b6100c760048036038101906100c29190610739565b6101cc565b005b6100e360048036038101906100de9190610697565b6102ed565b6040516100f091906108b0565b60405180910390f35b610113600480360381019061010e919061066a565b61035f565b005b60015481565b610123610457565b73ffffffffffffffffffffffffffffffffffffffff166101416101a3565b73ffffffffffffffffffffffffffffffffffffffff1614610197576040517f08c379a000000000000000000000000000000000000000000000000000000000815260040161018e90610890565b60405180910390fd5b6101a1600061045f565b565b60008060009054906101000a900473ffffffffffffffffffffffffffffffffffffffff16905090565b80600260003373ffffffffffffffffffffffffffffffffffffffff1673ffffffffffffffffffffffffffffffffffffffff168152602001908152602001600020600088815260200190815260200160002060008781526020019081526020016000206000868152602001908152602001600020600085815260200190815260200160002060008481526020019081526020016000209080519060200190610274929190610523565b506001600081548092919061028890610a05565b91905055503373ffffffffffffffffffffffffffffffffffffffff167f73de45c25d7789c56d0f2447110b3b7e2e9adc2f85dcc138cd869318df8a6ed94288888888886040516102dd969594939291906108cb565b60405180910390a2505050505050565b6002602052866000526040600020602052856000526040600020602052846000526040600020602052836000526040600020602052826000526040600020602052816000526040600020818154811061034557600080fd5b906000526020600020016000965096505050505050505481565b610367610457565b73ffffffffffffffffffffffffffffffffffffffff166103856101a3565b73ffffffffffffffffffffffffffffffffffffffff16146103db576040517f08c379a00000000000000000000000000000000000000000000000000000000081526004016103d290610890565b60405180910390fd5b600073ffffffffffffffffffffffffffffffffffffffff168173ffffffffffffffffffffffffffffffffffffffff16141561044b576040517f08c379a000000000000000000000000000000000000000000000000000000000815260040161044290610870565b60405180910390fd5b6104548161045f565b50565b600033905090565b60008060009054906101000a900473ffffffffffffffffffffffffffffffffffffffff169050816000806101000a81548173ffffffffffffffffffffffffffffffffffffffff021916908373ffffffffffffffffffffffffffffffffffffffff1602179055508173ffffffffffffffffffffffffffffffffffffffff168173ffffffffffffffffffffffffffffffffffffffff167f8be0079c531659141344cd1fd0a4f28419497f9722a3daafe3b4186f6b6457e060405160405180910390a35050565b82805482825590600052602060002090810192821561055f579160200282015b8281111561055e578251825591602001919060010190610543565b5b50905061056c9190610570565b5090565b5b80821115610589576000816000905550600101610571565b5090565b60006105a061059b84610951565b61092c565b905080838252602082019050828560208602820111156105c3576105c2610ab1565b5b60005b858110156105f357816105d98882610655565b8452602084019350602083019250506001810190506105c6565b5050509392505050565b60008135905061060c81610b49565b92915050565b600082601f83011261062757610626610aac565b5b813561063784826020860161058d565b91505092915050565b60008135905061064f81610b60565b92915050565b60008135905061066481610b77565b92915050565b6000602082840312156106805761067f610abb565b5b600061068e848285016105fd565b91505092915050565b600080600080600080600060e0888a0312156106b6576106b5610abb565b5b60006106c48a828b016105fd565b97505060206106d58a828b01610640565b96505060406106e68a828b01610655565b95505060606106f78a828b01610655565b94505060806107088a828b01610655565b93505060a06107198a828b01610655565b92505060c061072a8a828b01610655565b91505092959891949750929550565b60008060008060008060c0878903121561075657610755610abb565b5b600061076489828a01610640565b965050602061077589828a01610655565b955050604061078689828a01610655565b945050606061079789828a01610655565b93505060806107a889828a01610655565b92505060a087013567ffffffffffffffff8111156107c9576107c8610ab6565b5b6107d589828a01610612565b9150509295509295509295565b6107eb8161098e565b82525050565b6107fa816109a0565b82525050565b600061080d60268361097d565b915061081882610ad1565b604082019050919050565b600061083060208361097d565b915061083b82610b20565b602082019050919050565b61084f816109ca565b82525050565b600060208201905061086a60008301846107e2565b92915050565b6000602082019050818103600083015261088981610800565b9050919050565b600060208201905081810360008301526108a981610823565b9050919050565b60006020820190506108c56000830184610846565b92915050565b600060c0820190506108e06000830189610846565b6108ed60208301886107f1565b6108fa6040830187610846565b6109076060830186610846565b6109146080830185610846565b61092160a0830184610846565b979650505050505050565b6000610936610947565b905061094282826109d4565b919050565b6000604051905090565b600067ffffffffffffffff82111561096c5761096b610a7d565b5b602082029050602081019050919050565b600082825260208201905092915050565b6000610999826109aa565b9050919050565b6000819050919050565b600073ffffffffffffffffffffffffffffffffffffffff82169050919050565b6000819050919050565b6109dd82610ac0565b810181811067ffffffffffffffff821117156109fc576109fb610a7d565b5b80604052505050565b6000610a10826109ca565b91507fffffffffffffffffffffffffffffffffffffffffffffffffffffffffffffffff821415610a4357610a42610a4e565b5b600182019050919050565b7f4e487b7100000000000000000000000000000000000000000000000000000000600052601160045260246000fd5b7f4e487b7100000000000000000000000000000000000000000000000000000000600052604160045260246000fd5b600080fd5b600080fd5b600080fd5b600080fd5b6000601f19601f8301169050919050565b7f4f776e61626c653a206e6577206f776e657220697320746865207a65726f206160008201527f6464726573730000000000000000000000000000000000000000000000000000602082015250565b7f4f776e61626c653a2063616c6c6572206973206e6f7420746865206f776e6572600082015250565b610b528161098e565b8114610b5d57600080fd5b50565b610b69816109a0565b8114610b7457600080fd5b50565b610b80816109ca565b8114610b8b57600080fd5b5056fea264697066735822122011b448fb6ddbc257a55147dfdc5b98bb92a8dfd4125f25b5b45d38e027df190664736f6c63430008060033",
  "immutableReferences": {},
  "source": "// SPDX-License-Identifier: MIT\npragma solidity =0.8.6;\n\nimport {Ownable} from \"@openzeppelin/contracts/access/Ownable.sol\";\n// import \"@openzeppelin/contracts/access/Ownable.sol\";\n\nstruct Result {\n    uint256 first;\n    uint256 second;\n    uint256 third;\n    uint256 forth;\n    uint256 timestamp;\n}\n\ncontract Horse is Ownable {\n\n    uint256 public count;\n\n    mapping(address => mapping(bytes32 => mapping(uint => mapping(uint => mapping(uint => mapping(uint => uint[])))))) public results;\n\n    function addResult(bytes32 mnemonic, uint year, uint month, uint day, uint race, uint[] memory _results) public {\n        results[msg.sender][mnemonic][year][month][day][race] = _results;\n        count++;\n        emit ResultAdded(msg.sender, block.timestamp, mnemonic, year, month, day, race);\n    }\n\n    event ResultAdded(address indexed who, uint256 timestamp, bytes32 mnemonic, uint year, uint month, uint day, uint race);\n}",
  "sourcePath": "/home/lucascullen/GitHub/BitcoinBrisbane/horse.link/contracts/Horse.sol",
  "compiler": {
    "name": "solc",
    "version": "0.8.6+commit.11564f7e.Emscripten.clang"
  },
  "schemaVersion": "3.3.4",
  "updatedAt": "2021-07-04T00:30:43.188Z",
  "networkType": "ethereum",
  "devdoc": {
    "kind": "dev",
    "methods": {
      "owner()": {
        "details": "Returns the address of the current owner."
      },
      "renounceOwnership()": {
        "details": "Leaves the contract without owner. It will not be possible to call `onlyOwner` functions anymore. Can only be called by the current owner. NOTE: Renouncing ownership will leave the contract without an owner, thereby removing any functionality that is only available to the owner."
      },
      "transferOwnership(address)": {
        "details": "Transfers ownership of the contract to a new account (`newOwner`). Can only be called by the current owner."
      }
    },
    "version": 1
  },
  "userdoc": {
    "kind": "user",
    "methods": {},
    "version": 1
  }
}